{
  "transactions": [
    {
      "hash": "0x8e3746fbc029bdd231dfccd8642b28de70cd1d26b651873cbcc68d10ee6f7a60",
      "transactionType": "CALL",
      "contractName": null,
      "contractAddress": "0x5d8d13e67ee77a7a9906cf9223b3c27feb79a356",
      "function": "createGame(address,(string,string,string,uint256)[],uint256)",
      "arguments": [
        "0x5d8D13e67ee77a7a9906CF9223B3C27feB79A356",
        "[(\"ipfs://bafybeif4uof2j5n3z33sifjaiwzpkhyqwenyohhgk5bexv2mbiasl5q3au\", \"virat kohli\", \"batsman\", 1413), (\"ipfs://bafybeigi74wsib47dtnugxpczxospxhflxztcyubq3ifibdkpvxxbkbc2y\", \"rohit sharma\", \"batsman\", 576), (\"ipfs://bafybeiegaabgbszh7fqrylhptbimtjlfpj5gkrqnkksq2p6bljnsxhhzlm\", \"trent boult\", \"bowler\", 8117), (\"ipfs://bafybeihswxtsfdrsusdnw4lrfnldrcohbmps2nvix4lq4iqxsb2zontnmy\", \"steve smith\", \"batsman\", 2250)]",
        "36000"
      ],
      "transaction": {
        "from": "0x0f5342b55abcc0cc78bdb4868375bca62b6c16ea",
        "to": "0x5d8d13e67ee77a7a9906cf9223b3c27feb79a356",
        "gas": "0xb3a3",
        "value": "0x0",
        "input": "0x92c94d630000000000000000000000005d8d13e67ee77a7a9906cf9223b3c27feb79a35600000000000000000000000000000000000000000000000000000000000000600000000000000000000000000000000000000000000000000000000000008ca00000000000000000000000000000000000000000000000000000000000000004000000000000000000000000000000000000000000000000000000000000008000000000000000000000000000000000000000000000000000000000000002000000000000000000000000000000000000000000000000000000000000000380000000000000000000000000000000000000000000000000000000000000050000000000000000000000000000000000000000000000000000000000000000800000000000000000000000000000000000000000000000000000000000000100000000000000000000000000000000000000000000000000000000000000014000000000000000000000000000000000000000000000000000000000000005850000000000000000000000000000000000000000000000000000000000000042697066733a2f2f626166796265696634756f66326a356e337a33337369666a6169777a706b68797177656e796f6868676b3562657876326d626961736c3571336175000000000000000000000000000000000000000000000000000000000000000000000000000000000000000000000000000000000000000000000000000b7669726174206b6f686c690000000000000000000000000000000000000000000000000000000000000000000000000000000000000000000000000000000007626174736d616e0000000000000000000000000000000000000000000000000000000000000000000000000000000000000000000000000000000000000000800000000000000000000000000000000000000000000000000000000000000100000000000000000000000000000000000000000000000000000000000000014000000000000000000000000000000000000000000000000000000000000002400000000000000000000000000000000000000000000000000000000000000042697066733a2f2f626166796265696769373477736962343764746e75677870637a786f73707868666c787a7463797562713369666962646b70767878626b62633279000000000000000000000000000000000000000000000000000000000000000000000000000000000000000000000000000000000000000000000000000c726f68697420736861726d6100000000000000000000000000000000000000000000000000000000000000000000000000000000000000000000000000000007626174736d616e000000000000000000000000000000000000000000000000000000000000000000000000000000000000000000000000000000000000000080000000000000000000000000000000000000000000000000000000000000010000000000000000000000000000000000000000000000000000000000000001400000000000000000000000000000000000000000000000000000000000001fb50000000000000000000000000000000000000000000000000000000000000042697066733a2f2f6261667962656965676161626762737a6837667172796c68707462696d746a6c66706a35676b72716e6b6b7371327036626c6a6e737868687a6c6d000000000000000000000000000000000000000000000000000000000000000000000000000000000000000000000000000000000000000000000000000b7472656e7420626f756c740000000000000000000000000000000000000000000000000000000000000000000000000000000000000000000000000000000006626f776c6572000000000000000000000000000000000000000000000000000000000000000000000000000000000000000000000000000000000000000000800000000000000000000000000000000000000000000000000000000000000100000000000000000000000000000000000000000000000000000000000000014000000000000000000000000000000000000000000000000000000000000008ca0000000000000000000000000000000000000000000000000000000000000042697066733a2f2f62616679626569687377787473666472737573646e77346c72666e6c6472636f68626d7073326e766978346c71346971787362327a6f6e746e6d79000000000000000000000000000000000000000000000000000000000000000000000000000000000000000000000000000000000000000000000000000b737465766520736d6974680000000000000000000000000000000000000000000000000000000000000000000000000000000000000000000000000000000007626174736d616e00000000000000000000000000000000000000000000000000",
        "nonce": "0x4",
        "chainId": "0x14a34"
      },
      "additionalContracts": [],
      "isFixedGasLimit": false
    }
  ],
  "receipts": [
    {
      "status": "0x1",
      "cumulativeGasUsed": "0x373c3",
      "logs": [],
      "logsBloom": "0x00000000000000000000000000000000000000000000000000000000000000000000000000000000000000000000000000000000000000000000000000000000000000000000000000000000000000000000000000000000000000000000000000000000000000000000000000000000000000000000000000000000000000000000000000000000000000000000000000000000000000000000000000000000000000000000000000000000000000000000000000000000000000000000000000000000000000000000000000000000000000000000000000000000000000000000000000000000000000000000000000000000000000000000000000000000",
      "type": "0x0",
      "transactionHash": "0x8e3746fbc029bdd231dfccd8642b28de70cd1d26b651873cbcc68d10ee6f7a60",
      "transactionIndex": "0x2",
      "blockHash": "0x850d5438069dac2c2dda3da46754818c631502e121190d9d07c9238c7e3951f4",
      "blockNumber": "0x11ac60c",
      "gasUsed": "0x820f",
      "effectiveGasPrice": "0xf4341",
      "from": "0x0f5342b55abcc0cc78bdb4868375bca62b6c16ea",
      "to": "0x5d8d13e67ee77a7a9906cf9223b3c27feb79a356",
      "contractAddress": null,
      "l1BaseFeeScalar": "0x44d",
      "l1BlobBaseFee": "0x1a28f",
      "l1BlobBaseFeeScalar": "0xa118b",
      "l1Fee": "0xb034f53",
      "l1GasPrice": "0x11e8fcf",
      "l1GasUsed": "0x1cc2"
    }
  ],
  "libraries": [],
  "pending": [],
  "returns": {},
  "timestamp": 1732831998,
  "chain": 84532,
  "commit": "1fc3c46"
}